:020000040800F2
:100000000000022059160008390700083B070008C5
:100010003D0700083F0700084107000800000000F6
:10002000000000000000000000000000430700087E
:1000300045070008000000004707000849070008BE
:10004000A9160008A9160008A9160008A916000894
:10005000A9160008A9160008A9160008A916000884
:10006000A9160008A9160008A9160008A916000874
:10007000A9160008A9160008A9160008A916000864
:10008000A9160008A9160008A9160008A916000854
:10009000A9160008A9160008A9160008A916000844
:1000A000A9160008A9160008A9160008A916000834
:1000B000A9160008A9160008A9160008A916000824
:1000C000A9160008A9160008A9160008A916000814
:1000D000A9160008A9160008A9160008A916000804
:1000E000A9160008A9160008A9160008A9160008F4
:1000F000A9160008A9160008A9160008A9160008E4
:10010000A9160008A9160008A9160008A9160008D3
:10011000A9160008A9160008A9160008A9160008C3
:10012000A9160008A9160008A9160008A9160008B3
:10013000A9160008A9160008A9160008A9160008A3
:10014000A9160008A9160008A9160008A916000893
:10015000A9160008A9160008A9160008A916000883
:10016000A9160008A9160008A9160008A916000873
:10017000A9160008A9160008A9160008000000002A
:08018000A9160008A9160008E9
:1001880010B5054C237833B9044B13B10448AFF3C9
:1001980000800123237010BD0C0000200000000027
:1001A8000417000808B5034B1BB103490348AFF314
:1001B800008008BD0000000010000020041700089F
:1001C80010F8012B11F8013B012A28BF9A42F7D0F9
:1001D800D01A7047034613F8012B002AFBD1181ACE
:1001E8000138704753B94AB9002908BF00281CBF15
:1001F8004FF0FF314FF0FF3000F06EB9ADF1080C51
:100208006DE904CE00F006F8DDF804E0DDE902232C
:1002180004B070472DE9F047089D04468C46002B32
:1002280040F083808A42174647D9B2FA82F242B137
:10023800C2F1200024FA00F09140974040EA010CF6
:1002480094404FEA1748230CBCFBF8F61FFA87FEC8
:1002580008FB16C143EA014306FB0EF1994209D98E
:10026800FB1806F1FF3080F01981994240F216819F
:10027800023E3B445B1AA4B2B3FBF8F008FB103310
:1002880044EA034400FB0EFEA64509D93C1900F1D7
:10029800FF3380F00581A64540F2028102383C44D4
:1002A80040EA0640A4EB0E0400261DB1D44000230A
:1002B800C5E900433146BDE8F08702B9FFDEB2FA6E
:1002C80082F2002A50D1CB1B4FEA174E1FFA87F84B
:1002D8000126B3FBFEFC210C0EFB1C3341EA034153
:1002E80008FB0CF38B4207D979180CF1FF3002D2C6
:1002F8008B4200F2E9808446C91AA3B2B1FBFEF032
:100308000EFB101143EA014408FB00F8A04507D989
:100318003C1900F1FF3302D2A04500F2D9801846FB
:10032800A4EB080440EA0C40BFE78B4209D9002D32
:1003380000F0B1800026C5E9000130463146BDE82D
:10034800F087B3FA83F6002E4AD18B4202D3824259
:1003580000F2B880841A61EB030101208C46002D5D
:10036800A8D0C5E9004CA5E7C2F1200320FA03F69E
:10037800974001FA02F04FEA174ED9403043030C78
:10038800B1FBFEF61FFA87F80EFB161143EA01438C
:1003980006FB08F1994204FA02F409D9FB1806F1A0
:1003A800FF3C80F08D80994240F28A80023E3B44B7
:1003B8005B1A81B2B3FBFEF00EFB103341EA034136
:1003C80000FB08F38B4207D9791800F1FF3C73D280
:1003D8008B4271D902383944CB1A40EA064678E78D
:1003E800C6F1200C03FA06F422FA0CF31C4320FA97
:1003F8000CF701FA06F34FEA144E21FA0CF11F43E9
:100408003B0CB1FBFEF91FFA84F80EFB191143EA05
:10041800014109FB08FA8A4502FA06F200FA06F3D6
:1004280008D9611809F1FF3048D28A4546D9A9F19F
:1004380002092144A1EB0A01BFB2B1FBFEF00EFB99
:10044800101147EA014700FB08F8B84507D9E71932
:1004580000F1FF312ED2B8452CD90238274440EAA2
:100468000940A7EB0807A0FB02894F45C646494645
:100478001AD317D05DB1B3EB0E0267EB010707FA89
:100488000CFCF2404CEA0202F740C5E900270026BE
:100498003146BDE8F0872E4628460BE70646E9E6D2
:1004A8001846FDE64345E5D2B8EB020E69EB0401B8
:1004B8000138DFE70846D2E760468DE78146B9E7AD
:1004C800664675E730464AE7ACF1020C394413E753
:1004D80002383C4424E700BF704700BF30B589B0FC
:1004E8000024039404940594069407940094194BEB
:1004F8001A6B42F080021A631A6B02F080020092B3
:10050800009A01941A6B42F001021A631A6B02F006
:1005180001020192019A02941A6B42F008021A63CE
:100528001B6B03F008030293029B0B4D22464FF40A
:100538007041284600F0B6FF4FF47043039301233F
:1005480004930594069403A9284600F0C5FE09B053
:1005580030BD00BF00380240000C024008B5084812
:10056800084B03604FF4E133436000238360C360AA
:1005780003610C2242618361C36100F065FA08BD22
:10058800F80000200044004030B595B0302200212A
:1005980008A801F0ABF80024039404940594069489
:1005A800079401941C4B1A6C42F080521A641B6C1D
:1005B80003F080530193019B0294184B1A6842F48C
:1005C80080421A601B6803F480430293029B012354
:1005D80008934FF48033099302250E954FF4800356
:1005E8000F9304231093A8231193129507231393B1
:1005F80008A800F03FFB0F230393049505944FF4DC
:10060800A05306934FF480530793052103A800F0E5
:100618008DFD15B030BD00BF0038024000700040AD
:1006280008B500F0C7FFFFF7AFFFFFF757FFFFF769
:1006380095FF35E0334A0121116033490022CA543D
:100648003248FFF7BDFD00283ED02F493048FFF75C
:10065800B7FDE8B900224FF470412E4800F022FFA0
:100668002D4C64220021204601F040F82B4B03CB8F
:10067800206061601A889B782281A3722046FFF768
:10068800A9FD4FF6FF7382B22146254800F00BFA08
:100698000023244A13601B4A13600A2000F0B6FFA7
:1006A8006423012220491E4800F06EFA0028F7D181
:1006B8001C4B1B681C4A12781349CA540A2AB9D021
:1006C8000133184A1360EBE701224FF470411148D7
:1006D80000F0E8FE104C64220021204601F006F8E4
:1006E800124B03CB206061601B8823812046FFF7F3
:1006F80071FD4FF6FF7382B22146094800F0D3F925
:10070800A3E700BF90000020940000201C170008F9
:100718002C170008000C02402800002030170008A1
:10072800F8000020380100208C0000202017000865
:100738007047FEE7FEE7FEE7FEE770477047704741
:1007480008B500F051FF08BD00B583B00021009145
:100758000C4B5A6C42F480425A645A6C02F4804240
:100768000092009A01911A6C42F080521A641B6C34
:1007780003F080530193019B072000F099FE03B01A
:100788005DF804FB0038024000B589B000230393EC
:1007980004930593069307930268154B9A4202D077
:1007A80009B05DF804FB0022019203F5FA33196CD5
:1007B80041F400311964196C01F400310191019977
:1007C8000292196B41F0010119631B6B03F00103DD
:1007D8000293029B0C2303930223049305920323A1
:1007E80006930723079303A9024800F075FDD7E78E
:1007F800004400400000024070B5044602681369D6
:1008080023F44053C1680B4313618368026913439F
:1008180042691343C2691A430168CB6823F416433B
:1008280023F00C031343CB600268536923F440732D
:1008380081690B435361C369B3F5004F36D0036830
:10084800654A934200F09A8002F58062934200F074
:10085800958000F021FD0026051846EB06012D18AD
:1008680046EB0101CB0043EA5573EA0015461946E9
:1008780063689A009B0F281846EB0101FFF7B2FC4A
:10088800564DA5FB00325109642303FB11031B01DC
:100898003233A5FB03235B0903F0F00202EB0112DC
:1008A80003F00F03216813448B6093E003684A4AFE
:1008B800934233D002F5806293422FD000F0ECFCD3
:1008C8000026051846EB06012D1846EB0101CB0062
:1008D80043EA5573EA00154619466268334692188A
:1008E80046EB0303281846EB0101FFF77BFC3B4D61
:1008F800A5FB00325109642303FB1103DB003233EB
:10090800A5FB03235B095A0002F4F87202EB0112FB
:1009180003F00703216813448B605BE000F0CCFC14
:100928000026051846EB06012D1846EB0101CB0001
:1009380043EA5573EA001546194662683346921829
:1009480046EB0303281846EB0101FFF74BFC234D48
:10095800A5FB00325109642303FB1103DB0032338A
:10096800A5FB03235B095A0002F4F87202EB01129B
:1009780003F00703216813448B602BE000F09CFC14
:100988000026051846EB06012D1846EB0101CB00A1
:1009980043EA5573EA001546194663689A009B0FA7
:1009A800281846EB0101FFF71DFC0C4DA5FB003292
:1009B8005109642303FB11031B013233A5FB0323F5
:1009C8005B0903F0F00202EB011203F00F03216848
:1009D80013448B6070BD00BF001001401F85EB51B0
:1009E8002DE9F84305460F4616469946DDF820805E
:1009F8002C68246837EA04030CBF01240024B4429D
:100A08001FD1B8F1FF3FF3D0B8F1000F05D000F0C7
:100A1800F7FDA0EB09004045EAD92A68D36823F41A
:100A2800D073D3602A68536923F0010353612023EC
:100A380085F8393085F83A30002385F838300320B6
:100A480000E00020BDE8F88358B310B5044690F8DC
:100A580039300BB3242384F839302268D36823F45F
:100A68000053D3602046FFF7C7FE2268136923F4BA
:100A7800904313612268536923F02A035361226863
:100A8800D36843F40053D3600020E063202384F844
:100A9800393084F83A3010BD80F83830FFF774FEEA
:100AA800D8E7012070472DE9F04383B01E4690F83F
:100AB8003930DBB2202B59D104460D469046002927
:100AC80058D0002A58D090F83830012B56D001233E
:100AD80080F838304FF00009C0F83C90212380F8A6
:100AE800393000F08DFD0746A4F82480A4F826804C
:100AF80084F8389017E000963B4600228021204673
:100B0800FFF76EFF00283BD12B882268C3F3080348
:100B1800536023690BB9023505E0013503E015F888
:100B2800012B23685A60E38C9BB29BB1E28C92B292
:100B3800013A92B2E284A368B3F5805FDBD00096F5
:100B48003B46002280212046FFF74AFF0028E6D0D6
:100B580003200CE000963B46002240212046FFF788
:100B68003FFF78B9202384F8393000E0022003B031
:100B7800BDE8F0830120FAE70120F8E70220F6E754
:100B88000320F4E70320F2E72DE9F04383B01E4683
:100B980090F83A30DBB2202B5DD104460D469046E2
:100BA80000295CD0002A5CD090F83830012B5AD04C
:100BB800012380F838304FF00009C0F83C90222318
:100BC80080F83A3000F01CFD0746A4F82C80A4F801
:100BD8002E8084F838901DE000963B4600222021A4
:100BE8002046FFF7FDFE00283FD1236933B923686B
:100BF8005B68C3F3080325F8023B0BE023685B68D6
:100C0800DBB225F8013B05E023685B6803F07F034E
:100C180005F8013BE38D9BB2C3B1E28D92B2013A74
:100C280092B2E285A368B3F5805FD5D000963B46C3
:100C3800002220212046FFF7D3FEC0B92369002BEC
:100C4800E2D123685B6805F8013BE3E7202384F8D9
:100C58003A30002000E0022003B0BDE8F083012014
:100C6800FAE70120F8E70220F6E70320F4E703207B
:100C7800F2E70000002800F0D98170B582B0044680
:100C8800036813F0010F3BD0A64B9B6803F00C03DD
:100C9800042B2CD0A34B9B6803F00C03082B21D00A
:100CA8006368B3F5803F4FD0B3F5A02F52D09D4B6A
:100CB8001A6822F480321A601A6822F480221A60B4
:100CC8006368002B50D000F09BFC0546954B1B68D1
:100CD80013F4003F14D100F093FC401B6428F5D9AD
:100CE8000320AAE18F4B5B6813F4800FD8D08D4B9B
:100CF8001B6813F4003F03D06368002B00F0988151
:100D0800236813F0020F54D0864B9B6813F00C0F26
:100D18003ED0844B9B6803F00C03082B33D0E36868
:100D2800002B67D0804B01221A6000F069FC054651
:100D38007C4B1B6813F0020F53D100F061FC401B81
:100D48000228F5D9032078E1764A136843F4803302
:100D58001360B5E7734B1A6842F480221A601A6868
:100D680042F480321A60ABE700F04AFC05466D4B4E
:100D78001B6813F4003FC3D000F042FC401B6428FA
:100D8800F5D9032059E1674B5B6813F4800FC6D18E
:100D9800644B1B6813F0020F03D0E368012B40F08B
:100DA8004981604A136823F0F803216943EAC103C3
:100DB8001360236813F0080F40D0636963B35B4B7B
:100DC80001221A6000F01CFC0546564B5B6F13F0BD
:100DD800020F33D100F014FC401B0228F5D9032080
:100DE8002BE1504A136823F0F803216943EAC10351
:100DF8001360DEE74C4B00221A6000F001FC054648
:100E0800484B1B6813F0020FD3D000F0F9FB401BCE
:100E18000228F5D9032010E1444B00221A6000F0A3
:100E2800EFFB05463F4B5B6F13F0020F06D000F057
:100E3800E7FB401B0228F5D90320FEE0236813F0E6
:100E4800040F78D0374B1B6C13F0805F0DD1002353
:100E58000193344B1A6C42F080521A641B6C03F0F5
:100E680080530193019B012500E00025304B1B684E
:100E780013F4807F21D0A368012B32D0052B36D004
:100E8800284B1A6F22F001021A671A6F22F0040227
:100E98001A67A368002B34D000F0B2FB0646214B3A
:100EA8001B6F13F0020F45D100F0AAFB801B41F223
:100EB80088339842F3D90320BFE01D4A136843F4EE
:100EC8008073136000F09CFB0646194B1B6813F4F3
:100ED800807FD0D100F094FB801B0228F5D9032035
:100EE800ABE0104A136F43F001031367D1E70D4BD2
:100EF8001A6F42F004021A671A6F42F001021A6769
:100F0800C7E700F07DFB0646064B1B6F13F0020F88
:100F180010D000F075FB801B41F288339842F3D95A
:100F280003208AE00038024000004742800E474212
:100F380000700040E5B9A369002B7DD0464A92684D
:100F480002F00C02082A51D0022B17D0434B002282
:100F58001A6000F055FB04463F4B1B6813F0007FF6
:100F680042D000F04DFB001B0228F5D9032064E0B5
:100F7800394A136C23F080531364DCE7374B0022A3
:100F88001A6000F03DFB0546334B1B6813F0007FE9
:100F980006D000F035FB401B0228F5D903204CE0B1
:100FA800E369226A1343626A43EA8213A26A520817
:100FB800013A43EA0243E26A43EA0263264A53607B
:100FC800264B01221A6000F01BFB0446224B1B68CB
:100FD80013F0007F06D100F013FB001B0228F5D99F
:100FE80003202AE0002028E0002026E0012B26D05C
:100FF800194B5B6803F48001E269914221D103F047
:101008003F02216A8A421ED1616A47F6C0721A40BD
:101018008A421AD103F44032A16A8A4217D103F0F6
:101028007063E26A934214D1002006E00120704701
:10103800012002E0012000E0002002B070BD012084
:10104800FBE70120F9E70120F7E70120F5E7012098
:10105800F3E70120F1E700BF003802406000474293
:10106800F8B52F4B9B6803F00C03042B53D0082BC7
:1010780053D12B4B5A6802F03F025B6813F4800F80
:1010880028D0274B5B68C3F3881358010021C01A86
:1010980061F100018E0146EA906687013C1A66EB11
:1010A8000105E90041EA5471E000C01841F100016E
:1010B8004B0243EAD0534402204619460023FFF767
:1010C80091F8174B5B68C3F3014301335B00B0FB36
:1010D800F3F023E0124B5B68C3F388135C0100252F
:1010E800E41A65F10005AE0146EA9466A701381BCB
:1010F80066EB0501CC0044EA5074C500E81844F1D9
:1011080000018B0243EA90538402204619460023CB
:10111800FFF768F8D5E7034800E00348F8BD00BFCB
:101128000038024000127A000024F400002800F081
:101138009B8070B50D4604464F4B1B6803F00F03A8
:101148008B4208D2CBB24C4A1370136803F00F03DA
:101158008B4240F08B80236813F0020F17D013F0F6
:10116800040F04D0454A936843F4E053936023681E
:1011780013F0080F04D0414A936843F46043936026
:101188003E4A936823F0F003A1680B4393602368F9
:1011980013F0010F32D06368012B21D09A1E012A67
:1011A80025D9364A126812F0020F61D033498A688D
:1011B80022F0030213438B6000F022FA06462F4BFD
:1011C8009B6803F00C036268B3EB820F16D000F043
:1011D80017FA801B41F288339842F0D9032042E085
:1011E800264A126812F4003FE0D101203BE0234A6E
:1011F800126812F0007FD9D1012034E01E4B1B6821
:1012080003F00F03AB4207D9EAB21B4B1A701B68F5
:1012180003F00F03AB422DD1236813F0040F06D05F
:10122800164A936823F4E053E1680B4393602368FC
:1012380013F0080F07D0114A936823F4604321691B
:1012480043EAC1039360FFF70BFF0C4B9B68C3F3A2
:1012580003130B4AD35CD8400A4B18600A4B186832
:1012680000F082F9002070BD012070470120FAE7E4
:101278000120F8E70120F6E7003C02400038024070
:101288003C1700080800002004000020014B1868E3
:10129800704700BF0800002008B5FFF7F7FF044BB0
:1012A8009B68C3F38223034AD35CD84008BD00BFC0
:1012B800003802404C17000808B5FFF7E7FF044B59
:1012C8009B68C3F34233034AD35CD84008BD00BFD0
:1012D800003802404C17000800230F2B00F2D98079
:1012E800F0B583B039E0072200E00022B2403A436B
:1012F8000234684E46F82420674A1468EA4324EA10
:1013080005064F6817F4803F01D045EA0406624C91
:101318002660646802EA04064F6817F4003F01D0AB
:1013280045EA04065C4C6660A46802EA04064F6855
:1013380017F4801F01D045EA0406574CA660E468FC
:1013480022404E6816F4001F01D045EA0402524CB0
:10135800E26001330F2B00F29A8001229A400C6858
:1013680004EA020532EA0404F3D14C68661E012E31
:1013780003D9112C01D0122C12D186685F000324E6
:10138800BC4026EA0406CC68BC4034438460466806
:1013980026EA02064C68C4F300129A4032434260BF
:1013A800C7685E000324B440E24327EA04078C6858
:1013B800B4403C43C4604C68022C01D0122C13D1B9
:1013C800DF08083750F827E003F007044FEA840CD9
:1013D8000F2404FA0CF42EEA040E0C6904FA0CF437
:1013E80044EA0E0440F82740046814404A6802F0B2
:1013F8000302B240224302604A6812F0805FA8D01C
:1014080000220192254A546C44F480445464526C7E
:1014180002F480420192019A9C08A61C1D4A52F8C7
:10142800267003F0030296000F22B24027EA020753
:101438001B4A90423FF459AF02F5806290421AD09D
:1014480002F58062904218D002F58062904216D070
:1014580002F58062904214D002F58062904212D068
:1014680002F58062904210D002F5806290423FF40B
:101478003AAF08223AE7012238E7022236E7032288
:1014880034E7042232E7052230E706222EE703B0CC
:10149800F0BD704700380140003C01400038024070
:1014A800000002400AB181617047090481617047F8
:1014B800074AD36823F4E0631B041B0C000200F402
:1014C800E060034343F0BF6343F40033D3607047E5
:1014D80000ED00E030B4174BDB68C3F30223C3F11F
:1014E8000704042C28BF04241D1D062D18D9033B0E
:1014F8004FF0FF3505FA04F421EA0401994005FA92
:1015080003F322EA0303194300280BDB0901C9B2DC
:1015180000F1604000F5614080F8001330BC70476E
:101528000023E5E700F00F000901C9B2024B195486
:10153800F4E700BF00ED00E014ED00E00138B0F181
:10154800807F0AD2064B5860064AF02182F82310A1
:101558000020986007221A6070470120704700BF7A
:1015680010E000E000ED00E010B504460E4B1878DE
:101578004FF47A73B3FBF0F30C4A1068B0FBF3F046
:10158800FFF7DCFF68B90F2C01D901200AE000221F
:1015980021464FF0FF30FFF79DFF054B1C600020F0
:1015A80000E0012010BD00BF00000020080000205E
:1015B8000400002008B50B4B1A6842F400721A6048
:1015C8001A6842F480621A601A6842F480721A60DB
:1015D8000320FFF76DFF0020FFF7C6FFFFF7B4F801
:1015E800002008BD003C0240034A1168034B1B78E9
:1015F8000B441360704700BF3C010020000000202E
:10160800014B1868704700BF3C01002038B50446FC
:10161800FFF7F6FF0546B4F1FF3F02D0044B1B78F5
:101628001C44FFF7EDFF401BA042FAD338BD00BFB2
:1016380000000020054BD3F8882042F47002C3F85C
:1016480088204FF000629A60704700BF00ED00E00C
:10165800DFF834D0002103E00C4B5B5843500431D1
:101668000B480C4B42189A42F6D30B4A02E000236F
:1016780042F8043B094B9A42F9D3FFF7DBFF00F02D
:1016880011F8FEF7CDFF704700000220641700082C
:10169800000000200C0000200C0000204001002069
:1016A800FEE7000070B50D4D0D4C641BA41000261C
:1016B800A64209D10B4D0C4C00F020F8641BA41075
:1016C8000026A64205D170BD55F8043B984701365F
:1016D800EEE755F8043B98470136F2E75C17000837
:1016E8005C1700085C1700086017000802440346EE
:1016F800934200D1704703F8011BF9E7F8B500BF22
:10170800F8BC08BC9E467047F8B500BFF8BC08BCDA
:041718009E46704732
:10171C006F6E00004C454473206F6E210A00000070
:10172C006F6666004C454473206F6666210A0000A4
:10173C000000000000000000010203040607080975
:08174C0000000000010203048B
:08175400C8EAFF7F010000005C
:04175C00AD010008D3
:0417600089010008F3
:0C17640001000000100000000024F40050
:040000050800165980
:00000001FF
