:020000040800F2
:1000000000000220D10F0008290600082B06000876
:100010002D0600082F060008310600080000000029
:10002000000000000000000000000000330600088F
:1000300035060008000000003706000839060008F1
:1000400021100008211000082110000821100008CC
:1000500021100008211000082110000821100008BC
:1000600021100008211000082110000821100008AC
:10007000211000082110000821100008211000089C
:10008000211000082110000821100008211000088C
:10009000211000082110000821100008211000087C
:1000A000211000082110000821100008211000086C
:1000B000211000082110000821100008211000085C
:1000C000211000082110000821100008211000084C
:1000D000211000082110000821100008211000083C
:1000E000211000082110000821100008211000082C
:1000F000211000082110000821100008211000081C
:10010000211000082110000821100008211000080B
:1001100021100008211000082110000821100008FB
:1001200021100008211000082110000821100008EB
:1001300021100008211000082110000821100008DB
:1001400021100008211000082110000821100008CB
:1001500021100008211000082110000821100008BB
:1001600021100008211000082110000821100008AB
:1001700021100008211000082110000800000000D4
:08018000211000082110000805
:1001880010B5054C237833B9044B13B10448AFF3C9
:1001980000800123237010BD0C0000200000000027
:1001A8007C10000808B5034B1BB103490348AFF3A3
:1001B800008008BD00000000100000207C1000082E
:1001C80053B94AB9002908BF00281CBF4FF0FF31B6
:1001D8004FF0FF3000F06EB9ADF1080C6DE904CEB8
:1001E80000F006F8DDF804E0DDE9022304B070470A
:1001F8002DE9F047089D04468C46002B40F083808B
:100208008A42174647D9B2FA82F242B1C2F12000B7
:1002180024FA00F09140974040EA010C94404FEADC
:100228001748230CBCFBF8F61FFA87FE08FB16C11B
:1002380043EA014306FB0EF1994209D9FB1806F17E
:10024800FF3080F01981994240F21681023E3B440A
:100258005B1AA4B2B3FBF8F008FB103344EA03447A
:1002680000FB0EFEA64509D93C1900F1FF3380F0CA
:100278000581A64540F2028102383C4440EA064026
:10028800A4EB0E0400261DB1D4400023C5E90043A9
:100298003146BDE8F08702B9FFDEB2FA82F2002AE1
:1002A80050D1CB1B4FEA174E1FFA87F80126B3FB34
:1002B800FEFC210C0EFB1C3341EA034108FB0CF346
:1002C8008B4207D979180CF1FF3002D28B4200F229
:1002D800E9808446C91AA3B2B1FBFEF00EFB1011E7
:1002E80043EA014408FB00F8A04507D93C1900F18E
:1002F800FF3302D2A04500F2D9801846A4EB0804C7
:1003080040EA0C40BFE78B4209D9002D00F0B180CC
:100318000026C5E9000130463146BDE8F087B3FA4A
:1003280083F6002E4AD18B4202D3824200F2B88073
:10033800841A61EB030101208C46002DA8D0C5E981
:10034800004CA5E7C2F1200320FA03F6974001FA12
:1003580002F04FEA174ED9403043030CB1FBFEF6CA
:100368001FFA87F80EFB161143EA014306FB08F152
:10037800994204FA02F409D9FB1806F1FF3C80F00F
:100388008D80994240F28A80023E3B445B1A81B2DA
:10039800B3FBFEF00EFB103341EA034100FB08F308
:1003A8008B4207D9791800F1FF3C73D28B4271D97F
:1003B80002383944CB1A40EA064678E7C6F1200CE1
:1003C80003FA06F422FA0CF31C4320FA0CF701FA9C
:1003D80006F34FEA144E21FA0CF11F433B0CB1FB14
:1003E800FEF91FFA84F80EFB191143EA014109FBD3
:1003F80008FA8A4502FA06F200FA06F308D96118E3
:1004080009F1FF3048D28A4546D9A9F102092144A9
:10041800A1EB0A01BFB2B1FBFEF00EFB101147EAD7
:10042800014700FB08F8B84507D9E71900F1FF3183
:100438002ED2B8452CD90238274440EA0940A7EB08
:100448000807A0FB02894F45C64649461AD317D06C
:100458005DB1B3EB0E0267EB010707FA0CFCF24043
:100468004CEA0202F740C5E9002700263146BDE8FC
:10047800F0872E4628460BE70646E9E61846FDE6CD
:100488004345E5D2B8EB020E69EB04010138DFE71A
:100498000846D2E760468DE78146B9E7664675E7C4
:1004A80030464AE7ACF1020C394413E702383C44C1
:1004B80024E700BF704700BF70B588B000240394DC
:1004C800049405940694079400941C4B1A6B42F00C
:1004D80080021A631A6B02F080020092009A01945B
:1004E8001A6B42F001021A631A6B02F001020192C0
:1004F800019A02941A6B42F008021A631B6B03F00C
:1005080008030293029B0E4D22464FF47041284681
:1005180000F07FFC012603960494059403A909487A
:1005280000F08AFB4FF470430393049605940694F5
:1005380003A9284600F080FB08B070BD00380240CF
:10054800000C02400000024030B595B03022002176
:1005580008A800F087FD00240394049405940694E9
:10056800079401941C4B1A6C42F080521A641B6C5D
:1005780003F080530193019B0294184B1A6842F4CC
:1005880080421A601B6803F480430293029B012394
:1005980008934FF48033099302250E954FF4800396
:1005A8000F9304231093A8231193129507231393F1
:1005B80008A800F061F80F230393049505944FF4FD
:1005C800A05306934FF480530793052103A800F026
:1005D80085FA15B030BD00BF0038024000700040F9
:1005E80008B500F09FFCFFF7AFFFFFF765FF05E0D8
:1005F80000224FF47041084800F00BFC0121074825
:1006080000F000FC0028F3D001224FF470410248AA
:1006180000F0FFFBF2E700BF000C024000000240C0
:100628007047FEE7FEE7FEE7FEE770477047704752
:1006380008B500F091FC08BD00B583B00021009119
:100648000C4B5A6C42F480425A645A6C02F4804251
:100658000092009A01911A6C42F080521A641B6C45
:1006680003F080530193019B072000F0D9FB03B0EE
:100678005DF804FB00380240002800F0B98170B52D
:1006880082B00446036813F0010F3BD0A64B9B6869
:1006980003F00C03042B2CD0A34B9B6803F00C0332
:1006A800082B21D06368B3F5803F4FD0B3F5A02F56
:1006B80052D09D4B1A6822F480321A601A6822F4CC
:1006C80080221A606368002B50D000F051FC054668
:1006D800954B1B6813F4003F14D100F049FC401BF4
:1006E8006428F5D903208AE18F4B5B6813F4800FE7
:1006F800D8D08D4B1B6813F4003F03D06368002BE0
:1007080000F07881236813F0020F54D0864B9B6861
:1007180013F00C0F3ED0844B9B6803F00C03082B9E
:1007280033D0E368002B67D0804B01221A6000F0B9
:100738001FFC05467C4B1B6813F0020F53D100F0D9
:1007480017FC401B0228F5D9032058E1764A1368A4
:1007580043F480331360B5E7734B1A6842F4802280
:100768001A601A6842F480321A60ABE700F000FCA5
:1007780005466D4B1B6813F4003FC3D000F0F8FB2F
:10078800401B6428F5D9032039E1674B5B6813F4F3
:10079800800FC6D1644B1B6813F0020F03D0E368C7
:1007A800012B40F02981604A136823F0F80321697E
:1007B80043EAC1031360236813F0080F40D063694C
:1007C80063B35B4B01221A6000F0D2FB0546564B1F
:1007D8005B6F13F0020F33D100F0CAFB401B0228F5
:1007E800F5D903200BE1504A136823F0F803216977
:1007F80043EAC1031360DEE74C4B00221A6000F0A5
:10080800B7FB0546484B1B6813F0020FD3D000F026
:10081800AFFB401B0228F5D90320F0E0444B00222F
:100828001A6000F0A5FB05463F4B5B6F13F0020F03
:1008380006D000F09DFB401B0228F5D90320DEE01E
:10084800236813F0040F78D0374B1B6C13F0805FCC
:100858000DD100230193344B1A6C42F080521A6474
:100868001B6C03F080530193019B012500E00025D8
:10087800304B1B6813F4807F21D0A368012B32D042
:10088800052B36D0284B1A6F22F001021A671A6F0F
:1008980022F004021A67A368002B34D000F068FB2A
:1008A8000646214B1B6F13F0020F45D100F060FB89
:1008B800801B41F288339842F3D903209FE01D4AF8
:1008C800136843F48073136000F052FB0646194B1B
:1008D8001B6813F4807FD0D100F04AFB801B0228EC
:1008E800F5D903208BE0104A136F43F00103136717
:1008F800D1E70D4B1A6F42F004021A671A6F42F0E3
:1009080001021A67C7E700F033FB0646064B1B6F68
:1009180013F0020F10D000F02BFB801B41F288333C
:100928009842F3D903206AE00038024000004742A9
:10093800800E474200700040E5B9A369002B5DD0E6
:10094800314A926802F00C02082A5AD0022B17D0BA
:100958002E4B00221A6000F00BFB04462A4B1B6842
:1009680013F0007F42D000F003FB001B0228F5D9EA
:10097800032044E0244A136C23F080531364DCE71B
:10098800224B00221A6000F0F3FA05461E4B1B6842
:1009980013F0007F06D000F0EBFA401B0228F5D9CF
:1009A80003202CE0E369226A1343626A43EA821354
:1009B800A26A5208013A43EA0243E26A43EA02633E
:1009C800114A5360114B01221A6000F0D1FA044613
:1009D8000D4B1B6813F0007F06D100F0C9FA001B0D
:1009E8000228F5D903200AE0002008E0002006E0EC
:1009F80001207047012002E0012000E0002002B041
:100A080070BD0120FBE700BF00380240600047428C
:100A1800F8B52F4B9B6803F00C03042B53D0082B1D
:100A280053D12B4B5A6802F03F025B6813F4800FD6
:100A380028D0274B5B68C3F3881358010021C01ADC
:100A480061F100018E0146EA906687013C1A66EB67
:100A58000105E90041EA5471E000C01841F10001C4
:100A68004B0243EAD0534402204619460023FFF7BD
:100A7800A7FB174B5B68C3F3014301335B00B0FB73
:100A8800F3F023E0124B5B68C3F388135C01002585
:100A9800E41A65F10005AE0146EA9466A701381B21
:100AA80066EB0501CC0044EA5074C500E81844F12F
:100AB80000018B0243EA9053840220461946002322
:100AC800FFF77EFBD5E7034800E00348F8BD00BF09
:100AD8000038024000127A000024F400002800F0D8
:100AE8009A8070B50D4604464F4B1B6803F00F0300
:100AF8008B4208D2CBB24C4A1370136803F00F0331
:100B08008B4240F08A80236813F0020F17D013F04D
:100B1800040F04D0454A936843F4E0539360236874
:100B280013F0080F04D0414A936843F4604393607C
:100B38003E4A936823F0F003A1680B43936023684F
:100B480013F0010F32D06368012B21D09A1E012ABD
:100B580025D9364A126812F0020F60D033498A68E4
:100B680022F0030213438B6000F002FA06462F4B73
:100B78009B6803F00C036268B3EB820F16D000F099
:100B8800F7F9801B41F288339842F0D9032041E0FD
:100B9800264A126812F4003FE0D101203AE0234AC5
:100BA800126812F0007FD9D1012033E01E4B1B6878
:100BB80003F00F03AB4207D9EAB21B4B1A701B684C
:100BC80003F00F03AB422CD1236813F0040F06D0B7
:100BD800164A936823F4E053E1680B439360236853
:100BE80013F0080F07D0114A936823F46043216972
:100BF80043EAC1039360FFF70BFF0C4B9B68C3F3F9
:100C080003130B4AD35CD8400A4B1860002000F04D
:100C180063F9002070BD012070470120FAE7012028
:100C2800F8E70120F6E700BF003C02400038024028
:100C3800941000080800002000230F2B00F2D98030
:100C4800F0B482B039E0072200E00022B2403A4313
:100C58000234684E46F82420674A1468EA4324EAB6
:100C680005064F6817F4803F01D045EA0406624C38
:100C78002660646802EA04064F6817F4003F01D052
:100C880045EA04065C4C6660A46802EA04064F68FC
:100C980017F4801F01D045EA0406574CA660E468A3
:100CA80022404E6816F4001F01D045EA0402524C57
:100CB800E26001330F2B00F2998001229A400C6800
:100CC80004EA020532EA0404F3D14C68022C01D08C
:100CD800122C10D1DE08083650F826C003F007049D
:100CE800A7000F24BC402CEA040C0C69BC4044EA61
:100CF8000C0440F82640D0F800C05E000324B4403D
:100D0800E7432CEA040C4C6804F00304B44044EABA
:100D18000C0404604C6804F1FF3CBCF1010F03D9DA
:100D2800112C01D0122C10D1846807EA040CCC686D
:100D3800B44044EA0C048460446824EA02024C6823
:100D4800C4F300149C4014434460C26817408A6886
:100D5800B2403A43C2604A6812F0805FA9D00022CC
:100D68000192264A546C44F480445464526C02F450
:100D780080420192019A9C08A61C1E4A52F82670CD
:100D880003F0030296000F22B24027EA02071C4A2A
:100D980090423FF45AAF02F5806290421AD002F5B1
:100DA8008062904218D002F58062904216D002F517
:100DB8008062904214D002F58062904212D002F50F
:100DC8008062904210D002F5806290423FF43BAFBF
:100DD80008223BE7012239E7022237E7032235E7F9
:100DE800042233E7052231E706222FE702B0F0BCE0
:100DF8007047704700380140003C0140003802400D
:100E0800000002400369194201D001207047002008
:100E180070470AB181617047090481617047000019
:100E2800074AD36823F4E0631B041B0C000200F498
:100E3800E060034343F0BF6343F40033D36070477B
:100E480000ED00E030B4174BDB68C3F30223C3F1B5
:100E58000704042C28BF04241D1D062D18D9033BA4
:100E68004FF0FF3505FA04F421EA0401994005FA28
:100E780003F322EA0303194300280BDB0901C9B273
:100E880000F1604000F5614080F8001330BC704705
:100E98000023E5E700F00F000901C9B2024B19541D
:100EA800F4E700BF00ED00E014ED00E00138B0F118
:100EB800807F0AD2064B5860064AF02182F8231038
:100EC8000020986007221A6070470120704700BF11
:100ED80010E000E000ED00E010B504460E4B187875
:100EE8004FF47A73B3FBF0F30C4A1068B0FBF3F0DD
:100EF800FFF7DCFF68B90F2C01D901200AE00022B6
:100F080021464FF0FF30FFF79DFF054B1C60002086
:100F180000E0012010BD00BF0000002008000020F4
:100F28000400002008B50B4B1A6842F400721A60DE
:100F38001A6842F480621A601A6842F480721A6071
:100F48000320FFF76DFF0020FFF7C6FFFFF774FBD4
:100F5800002008BD003C0240034A1168034B1B787F
:100F68000B441360704700BF2800002000000020D9
:100F7800014B1868704700BF280000200F49D1F8BE
:100F8800883043F47003C1F888300D4B1A6842F07A
:100F980001021A60002098601A6822F0847222F414
:100FA80080321A60074A5A601A6822F480221A604E
:100FB800D8604FF000638B60704700BF00ED00E021
:100FC8000038024010300024DFF834D0002103E05C
:100FD8000C4B5B58435004310B480C4B42189A4257
:100FE800F6D30B4A02E0002342F8043B094B9A422D
:100FF800F9D3FFF7C3FF00F011F8FFF7F1FA7047D4
:1010080000000220B4100008000000200C0000209E
:101018000C0000202C000020FEE7000070B50D4DEC
:101028000D4C641BA4100026A64209D10B4D0C4C94
:1010380000F020F8641BA4100026A64205D170BD5C
:1010480055F8043B98470136EEE755F8043B9847B6
:101058000136F2E7AC100008AC100008AC1000082C
:10106800B010000802440346934200D1704703F8C9
:10107800011BF9E7F8B500BFF8BC08BC9E467047ED
:0C108800F8B500BFF8BC08BC9E467047DD
:101094000000000000000000010203040607080924
:0810A40054F1FF7F0100000080
:0410AC00AD0100088A
:0410B00089010008AA
:0C10B40001000000100000000024F40007
:0400000508000FD10F
:00000001FF
